:020000040800F2
:10000000FFFF012089070008E1070008E527000835
:100010002D28000815280008FD2700080000000012
:10002000000000000000000000000000E1070008E0
:10003000E107000800000000E1070008090D0008C2
:10004000E1070008E1070008E1070008E1070008F0
:10005000E1070008E1070008E1070008E1070008E0
:10006000E1070008E1070008E1070008113B00086C
:10007000253B0008393B00084D3B0008613B000868
:10008000753B0008893B000839470008E107000874
:10009000E1070008E1070008E1070008E1070008A0
:1000A0007113000889130008C5130008DD13000848
:1000B000E91300080114000819140008A13500080C
:1000C000B5350008C9350008DD350008A123000852
:1000D000B523000845280008592800086D280008A5
:1000E000E1070008E1070008E107000871140008B3
:1000F00089140008C5140008DD1400089D3B0008A1
:10010000E1070008E107000831140008C9230008CE
:10011000E1070008E107000849140008E1070008AA
:10012000B13B0008BD3B0008D13B0008E53B00089F
:10013000F93B0008E1070008E1070008E1070008B3
:10014000E1070008E1070008E1070008E1070008EF
:100150000D3C0008213C0008353C000881280008BF
:10016000E1070008E1070008E1070008E1070008CF
:10017000E1070008E1070008E107000800000000AF
:08018000E1070008E107000897
:1001880010B5054C237833B9044B13B10448AFF3C9
:1001980000800123237010BD6808002000000000C3
:1001A800787E000808B5064B1BB106480649AFF330
:1001B80000800648036813B1054B03B1984708BD92
:1001C80000000000787E00086C0800206808002005
:1001D800000000004BB942B9002908BF002802D02E
:1001E8004FF0FF31084600F03BB882B0EC462DE9ED
:1001F800005000F01DF8DDF804E002B00CBC7047B8
:100208002DE97043069E14461D468046894600F037
:1002180029F804FB01F300FB0533A4FB00451D444A
:10022800B8EB040469EB0505C6E90045BDE8708331
:100238002DE97043069E1446804689461D4600F007
:100248005DF900FB05F504FB0153A0FB04451D44C3
:10025800B8EB040469EB0505C6E90045BDE8708301
:10026800704700BF00292DE9F00FC0F29F800024DD
:10027800002BC0F29680154606460F46002B3ED14D
:100288008A4257D9B2FA82F34BB1C3F1200201FA7C
:1002980003F720FA02F29D40174300FA03F6290CEF
:1002A800B7FBF1F2330C01FB127CA8B243EA0C470E
:1002B80000FB02F3BB4209D97F1902F1FF3C80F031
:1002C8000181BB4240F2FE80023A2F44FF1AB7FB7D
:1002D800F1F3B6B201FB137146EA014100FB03F0EA
:1002E800884208D9491903F1FF3780F0ED80884228
:1002F80040F2EA80023B43EA0242002303E08B42D9
:100308000AD900231A461046194614B1404261EB37
:100318004101BDE8F00F7047B3FA83F8B8F1000F58
:1003280040F084808B4202D3824200F2DE800023B8
:100338000122E8E712B90123B3FBF2F5B5FA85F219
:10034800002A39D17F1B280C1FFA85FC0123B7FB33
:10035800F0F1320C00FB117742EA07470CFB01F27F
:10036800BA4207D97F1901F1FF3802D2BA4200F226
:10037800C1804146BF1AB7FBF0F2B6B200FB12705B
:1003880046EA00400CFB02FC844507D9401902F1FB
:10039800FF3702D2844500F2AB803A4642EA014276
:1003A800B1E7E443524263EB430364E7404261EB45
:1003B80041014FF0FF345BE79540C2F1200327FA73
:1003C80003F1280C26FA03F39740B1FBF0F81F431A
:1003D8003B0C00FB18111FFA85FC43EA01410CFB9A
:1003E80008F38B4206FA02F608D9491908F1FF32D8
:1003F80079D28B4277D9A8F102082944C91AB1FBEE
:10040800F0F3BFB200FB131147EA01470CFB03F2FC
:10041800BA4207D97F1903F1FF3160D2BA425ED9D7
:10042800023B2F44BF1A43EA084390E7C8F1200271
:1004380003FA08FC25FA02F343EA0C0C4FEA1C49BC
:1004480021FA02F301FA08F720FA02F2B3FBF9F1F4
:10045800174309FB11333A0C1FFA8CFB42EA03439A
:100468000BFB01FA9A4505FA08F008D913EB0C03BF
:1004780001F1FF3235D29A4533D902396344CAEBC8
:100488000303B3FBF9F209FB1233BFB247EA034790
:100498000BFB02F9B94508D917EB0C0702F1FF333A
:1004A8001BD2B94519D9023A674442EA0145A5FB6E
:1004B8000001C9EB07078F424FF000030AD305D0AC
:1004C8002A4620E7624601E73B4614E706FA08F6A3
:1004D8008642F5D26A1E002315E71A46E5E70B4661
:1004E800A0E71146CBE7904688E7434642460AE72D
:1004F800023A53E702392F443CE700BF2DE9F00FD9
:10050800144605460E46002B43D18A4253D9B2FA07
:1005180082F757B1C7F1200620FA06F601FA07F369
:1005280002FA07F41E4300FA07F5210CB6FBF1F2B4
:100538002B0C01FB1267A0B243EA074600FB02F34B
:10054800B34209D9361902F1FF3780F0F680B34279
:1005580040F2F380023A2644F61AB6FBF1F3ADB244
:1005680001FB136145EA014100FB03F0884208D909
:10057800091903F1FF3680F0E280884240F2DF80FB
:10058800023B43EA0242002310461946BDE8F00F39
:1005980070478B424AD8B3FA83F6002E4DD18B426E
:1005A80002D3824200F2D680002301221046194667
:1005B800BDE8F00F704712B90124B4FBF2F4B4FAA5
:1005C80084F2002A7CD1091B260CA7B20123B1FBB7
:1005D800F6F02A0C06FB101142EA014107FB00F273
:1005E8008A4207D9091900F1FF3C02D28A4200F277
:1005F800C3806046891AB1FBF6F2ADB206FB121150
:1006080045EA014507FB02F7AF4208D92C1902F168
:10061800FF3180F09680A74240F29380023A42EA86
:10062800004210461946BDE8F00F704700231A46ED
:1006380010461946BDE8F00F7047C6F1200522FAAA
:1006480005F4B3401C434FEA144821FA05F301FAB4
:1006580006F720FA05F5B3FBF8FC2F4308FB1C331B
:100668003D0C1FFA84FA45EA03430AFB0CF9994545
:1006780002FA06FB04D91B190CF1FF326DD394461C
:10068800C9EB0303B3FBF8F508FB1533BFB247EA20
:1006980003470AFB05F8B84504D93F1905F1FF33AC
:1006A80061D31D4645EA0C4CACFB0B23C8EB07078E
:1006B8009F424FF0000549D345D062462B4663E779
:1006C8009440C2F1200321FA03FC260C20FA03F31C
:1006D80001FA02F5BCFBF6F843EA05010B0C06FB30
:1006E80018CCA7B243EA0C4C07FB08F3634500FAA1
:1006F80002F509D91CEB040C08F1FF323AD2634524
:1007080038D9A8F10208A444C3EB0C0CBCFBF6F3DF
:1007180089B206FB13CC41EA0C4107FB03F28A427B
:1007280007D9091903F1FF3022D28A4220D9023BA6
:100738002144891A43EA084349E73A460CE7334615
:100748001FE70A466BE7B0409042B6D20CF1FF3281
:10075800002319E73346324616E799458FD9ACF19D
:10076800020C23448CE7B8459BD9023D274499E7FE
:100778000346DEE79046C7E7023821443AE700BF60
:10078800DFF83CD0002100F004B80E4B5B58435012
:1007980004310D480D4B42189A42FFF4F6AF0C4A4B
:1007A80000F003B8002342F8043B0A4B9A42FFF4D6
:1007B800F9AF01F0FFFF06F0F9FD04F009FB7047FF
:1007C800FFFF0120F89800080000002068080020BA
:1007D80068080020982F0020FFF7FEBF80B582B080
:1007E80000AF78607B68084A1A607B68184604F096
:1007F800B5FE0023002B02D0786806F0C5FD7B68A3
:1008080018460837BD4680BDF096000880B582B00E
:1008180000AF78607868FFF7E1FF786806F0B4FD0C
:100828007B6818460837BD4680BD00BF80B582B0DA
:1008380000AF78607B68084A1A607B68184604F045
:100848008DFE0023002B02D0786806F09DFD7B68A2
:1008580018460837BD4680BD0897000880B582B0A5
:1008680000AF78607868FFF7E1FF786806F08CFDE4
:100878007B6818460837BD4680BD00BF80B582B08A
:1008880000AF78607B68084A1A607B68184604F0F5
:100898008DFE0023002B02D0786806F075FD7B687A
:1008A80018460837BD4680BD2097000880B582B03D
:1008B80000AF78607868FFF7E1FF786806F064FDBC
:1008C8007B6818460837BD4680BD00BF80B582B03A
:1008D80000AF78607B68084A1A607B68184604F0A5
:1008E8003DFE0023002B02D0786806F04DFD7B68A2
:1008F80018460837BD4680BD3897000880B582B0D5
:1009080000AF78607868FFF7E1FF786806F03CFD93
:100918007B6818460837BD4680BD00BF80B582B0E9
:1009280000AF78607B68084A1A607B68184604F054
:1009380015FE0023002B02D0786806F025FD7B68A1
:1009480018460837BD4680BD5097000880B582B06C
:1009580000AF78607868FFF7E1FF786806F014FD6B
:100968007B6818460837BD4680BD00BF80B582B099
:1009780000AF78607B68084A1A607B68184604F004
:1009880015FE0023002B02D0786806F0FDFC7B687A
:1009980018460837BD4680BD6897000880B582B004
:1009A80000AF78607868FFF7E1FF786806F0ECFC44
:1009B8007B6818460837BD4680BD00BF80B582B049
:1009C80000AF78607B68084A1A607B68184604F0B4
:1009D800A1FD0023002B02D0786806F0D5FC7B68C7
:1009E80018460837BD4680BD8097000880B582B09C
:1009F80000AF78607868FFF7E1FF786806F0C4FC1C
:100A08007B6818460837BD4680BD00BF80B582B0F8
:100A180000AF7860194B1B6803F00073002B29D1D5
:100A28007B68002B20D0012000F04EF9134B134AAD
:100A3800126842F001021A6001F046FE0246104BAD
:100A4800A3FB02139B0CDAB20E4B1A700E4B092251
:100A58001A700D4B1A780B4B1B789A420AD9094B1E
:100A68001A78094B1A7005E0044B044A126822F000
:100A780001021A600837BD4680BD00BF001000E0C3
:100A880083DE1B43542F0020552F002010B4084943
:100A9800084A094B00240C6012781B7802FB00F00E
:100AA800C21A0B689A42FCD85DF8044B704700BF25
:100AB800041000E0542F0020552F00204FF47A73C3
:100AC80003FB00F0FFF7E2BF80B400AFBD465DF85E
:100AD800047B704780B400AFBD465DF8047B704767
:100AE80080B400AF044B044A126842F480321A60A2
:100AF800BD465DF8047B704724ED00E080B400AF8C
:100B0800044B044A126842F480221A60BD465DF81C
:100B1800047B704724ED00E080B400AF044B044A26
:100B2800126842F400321A60BD465DF8047B7047D3
:100B380024ED00E080B483B000AF786039604D4B9D
:100B48001B6803F002027B685A604A4B1B6803F07B
:100B580001027B681A60474B1B6803F008027B6838
:100B68009A60444B1B6803F480427B681A61414BCE
:100B78001B6803F400527B68DA603E4B1B6803F481
:100B880080527B685A613C4B1B6803F001023B684A
:100B98001A60394B1B6803F002023B685A60364BF7
:100BA8001B6803F008023B689A60334B1B6803F02C
:100BB80010023B68DA60304B1B6803F020023B6888
:100BC8001A612D4B1B6803F080023B685A612A4B5F
:100BD8001B6803F480723B689A61274B1B6803F417
:100BE80000723B68DA61244B1B6803F480623B683F
:100BF8001A62214B1B6803F400623B685A621E4B61
:100C08001B6803F480523B689A621B4B1B6803F411
:100C180000523B68DA62184B1B6803F400423B68D9
:100C28001A63154B1B6803F480323B685A63124BF6
:100C38001B6803F400323B689A630F4B1B6803F48C
:100C480080223B68DA630C4B1B6803F400223B6884
:100C58001A64094B1B6803F080723B685A64064BA0
:100C68001B6803F000723B689A640C37BD465DF858
:100C7800047B704724ED00E028ED00E080B483B0E9
:100C880000AF78607B68002B0CD00E4B0D4A1268C1
:100C980022F440121A600B4B0A4A126842F470029E
:100CA8001A6009E0074B074A126822F440121A60DA
:100CB800044B044A12681A600C37BD465DF8047B81
:100CC800704700BF88ED00E080B483B000AF786063
:100CD8007B68002B06D0094B084A126842F08072E4
:100CE8001A6005E0054B054A126822F080721A6006
:100CF8000C37BD465DF8047B704700BFFCED00E093
:100D080080B500AF034B1B68002B02D0014B1B685A
:100D1800984780BD582F002080B400AFFEE700BF81
:100D280080B483B000AF78607B68DB691B689BB2D6
:100D380018460C37BD465DF8047B704780B584B013
:100D480000AFF860B9603B601346FB71FB68043381
:100D580018463968BA69FB6903F04CFBFB681C4A02
:100D68001A60FB68FA7983F8AC20FB6897F82020B2
:100D780083F8AE20BA68FB681A61BB680C331A4660
:100D8800FB685A61BB6810331A46FB689A61BB68F6
:100D980014331A46FB68DA61BB6824331A46FB68C9
:100DA8001A62BB6828331A46FB685A62BB682C3340
:100DB8001A46FB689A62FB68002283F8AD20FB683C
:100DC800002283F8B020FB6818461037BD4680BD66
:100DD800C8970008B0B58AB004AFF860B960FA7176
:100DE800BB71FA6897F90630F96A0091396B01917D
:100DF80097F8341002911046B9681A46BB6AFFF793
:100E08009DFFFB689E4A1A60FB68B43303241D46A5
:100E180004E0284601F044F84835013CB4F1FF3FAE
:100E2800F7D1FB68FA7983F8D4210023FB75D9E15F
:100E3800FA7DFB7D0133DBB2D9B2F8681346DB00DB
:100E48001344DB000344B0330A461A72FA7DF9688A
:100E58001346DB001344DB000B44B033FA685A60D6
:100E6800FA7DBB680C331946F8681346DB00134457
:100E7800DB000344B8335960FA7DBB681033194668
:100E8800F8681346DB001344DB000344B833996069
:100E9800FA7DBB6814331946F8681346DB0013441F
:100EA800DB000344C0335960FA7DF9681346DB0060
:100EB8001344DB000B44D03300225A60FB7D012B26
:100EC8000CD8FA7DBB6818331946F8681346DB005E
:100ED8001344DB000344C03399600BE0FA7DBB6820
:100EE8001C331946F8681346DB001344DB0003443F
:100EF800C0339960FA7DBB6820331946F8681346F9
:100F0800DB001344DB000344C8335960FB7D032B2B
:100F180000F2658101A252F823F000BF350F0008E6
:100F2800DF0F00088D1000083B110008FA7DF968F2
:100F38001346DB001344DB000B44D03302225A81F2
:100F4800FA7DF9681346DB001344DB000B44D03309
:100F58004FF400721A81FA7DF9681346DB001344D6
:100F6800DB000B44D83302229A80FA7DF9681346D5
:100F7800DB001344DB000B44D8334FF40072DA80F3
:100F8800FA7DF9681346DB001344DB000B44D833C1
:100F980002221A81FA7DF9681346DB001344DB004C
:100FA8000B44E83301221A81FA7DF9681346DB0005
:100FB8001344DB000B44E83302225A81FA7DBB68F4
:100FC80034331946F8681346DB001344DB00034446
:100FD800C833996003E1FA7DF9681346DB001344CE
:100FE800DB000B44D03304225A81FA7DF96813469A
:100FF800DB001344DB000B44D0334FF480621A81CA
:10100800FA7DF9681346DB001344DB000B44D83340
:1010180004229A80FA7DF9681346DB001344DB004A
:101028000B44D8334FF48062DA80FA7DF9681346AE
:10103800DB001344DB000B44D83304221A81FA7D09
:10104800F9681346DB001344DB000B44E833102235
:101058001A81FA7DF9681346DB001344DB000B4460
:10106800E83320225A81FA7DBB6838331946F8687C
:101078001346DB001344DB000344C8339960AEE039
:10108800B0970008FA7DF9681346DB001344DB00CB
:101098000B44D03308225A81FA7DF9681346DB00E5
:1010A8001344DB000B44D0334FF400621A81FA7DFD
:1010B800F9681346DB001344DB000B44D8330822DD
:1010C8009A80FA7DF9681346DB001344DB000B4471
:1010D800D8334FF40062DA80FA7DF9681346DB00F2
:1010E8001344DB000B44D83308221A81FA7DF968CF
:1010F8001346DB001344DB000B44E8334FF48072E3
:101108001A81FA7DF9681346DB001344DB000B44AF
:10111800E8334FF400725A81FA7DBB683C331946B4
:10112800F8681346DB001344DB000344C8339960B6
:1011380055E0FA7DF9681346DB001344DB000B44E5
:10114800D03308225A81FA7DF9681346DB0013442C
:10115800DB000B44D0334FF400621A81FA7DF96842
:101168001346DB001344DB000B44D83310229A806B
:10117800FA7DF9681346DB001344DB000B44D833CF
:101188004FF48052DA80FA7DF9681346DB00134485
:10119800DB000B44D83310221A81FA7DF968134614
:1011A800DB001344DB000B44E8334FF480521A8110
:1011B800FA7DF9681346DB001344DB000B44E8337F
:1011C8004FF400525A81FA7DBB6840331946F868DB
:1011D8001346DB001344DB000344C8339960FB7DEE
:1011E8000133FB75FA7DFB799A42FFF421AEFB6867
:1011F80018461837BD46B0BD80B483B000AF7860DC
:101208007B6818460C37BD465DF8047B704700BF05
:1012180080B58AB004AFF860B960FA71BB71FA683A
:1012280097F90730396A0091796A0191B96A029190
:10123800002103911046B968042200F0EFFBFB6817
:1012480003F5F0731846B96800F0B6FBFB6803F5C0
:10125800F8731846B96800F08FFBFB6803F5FA735A
:101268001846B96800F098FBFB6803F5FC7318464C
:10127800B96800F0C1FBFB6803F5FE731846B9684E
:1012880000F0F8FDF868FFF7B7FFFB680F4A1A602F
:10129800FB68BA7983F804220023FB750EE0FA7D17
:1012A800BB6844331946F8681346DB001344DB0077
:1012B8000344D0335960FB7D0133FB75FB7D032B61
:1012C800EDD9FB6818461837BD4680BDD89600088A
:1012D80080B483B000AF78607B689B691B6803F0BB
:1012E8000103002B0CBF00230123DBB218460C3787
:1012F800BD465DF8047B704780B483B000AF78606A
:101308007B689B697A689269126822F001021A6008
:101318000C37BD465DF8047B704700BF80B483B0CE
:1013280000AF78607B689B691B6803F04003002B63
:101338000CBF00230123DBB218460C37BD465DF80D
:10134800047B704780B483B000AF78607B689B698A
:101358007A689269126822F040021A600C37BD461A
:101368005DF8047B704700BF80B500AF00F02EFE2B
:1013780003461A68083212681846904780BD00BFB5
:1013880080B500AF04F090F903461846FFF7A0FFB8
:101398000346002B08D004F087F903461A68083280
:1013A80012681846904707E000F05AFE03461A688C
:1013B800083212681846904780BD00BF80B500AF5C
:1013C80000F098FE03461A680832126818469047DB
:1013D80080BD00BF80B400AFBD465DF8047B704798
:1013E80080B500AF04F010FA03461A680832126894
:1013F8001846904780BD00BF80B500AF04F06AFA78
:1014080003461A68083212681846904780BD00BF24
:1014180080B500AF04F0C4FA03461A6808321268AF
:101428001846904780BD00BF80B500AF04F01EFB92
:1014380003461A68083212681846904780BD00BFF4
:1014480080B500AF00F070FD03461846FFF740FF77
:101458000346002B07D000F067FD03461A680832E0
:1014680012681846904780BD80B500AF00F09AFE1C
:1014780003461A68083212681846904780BD00BFB4
:1014880080B500AF04F058F903461846FFF720FF6F
:101498000346002B08D004F04FF903461A680832B7
:1014A80012681846904707E000F0C6FE03461A681F
:1014B800083212681846904780BD00BF80B500AF5B
:1014C80000F004FF03461A6808321268184690476D
:1014D80080BD00BF80B400AFBD465DF8047B704797
:1014E80090B585B000AF78607868FFF7F1FE0346E5
:1014F800002B20D07868FFF7FFFE0023FB7314E071
:10150800FB7B7A680A339B0013445B681B681C6882
:10151800FB7B7A680A339B0013445B6818460121F9
:101528000022A047FB7B0133FB737B6893F8AD3047
:10153800FA7B9A42E4D31437BD4690BD90B585B086
:1015480000AF78607B681846FFF7C2FE03467B73DE
:101558007868FFF7E3FE03463B737B7B002B02D1E1
:101568003B7B002B2AD07B7B002B03D07B68184663
:10157800FFF7C2FE3B7B002B02D07868FFF7E2FE44
:101588000023FB7314E0FB7B7A680A339B00134447
:101598005B681B681C68FB7B7A680A339B001344F2
:1015A8005B68184601210022A047FB7B0133FB73CF
:1015B8007B6893F8AD30FA7B9A42E4D30023BB737F
:1015C8004DE0BA7B1346DB001344DB00B0337A6886
:1015D80013440433184600F04DFA0346002B3BD061
:1015E800BA7B1346DB001344DB00B0337A6813443C
:1015F8000433184600F054FABA7B79681346DB00C6
:101608001344DB000B44F0335B68002B24D0BA7B17
:101618001346DB001344DB00BA7B79681346DB0012
:101628001344DB000B44F0335B681B681C68BA7B0F
:1016380079681346DB001344DB000B44F033596828
:10164800BA7B1346DB001344DB00B0337A681344DB
:10165800043308461946A047BB7B0133BB737B683C
:1016680093F8D431BA7B9A42ABD31437BD4690BDB8
:101678002DE9B04F90B000AF78627B6A1846FFF74B
:1016880027FE034687F83D307B6A1846FFF746FE7B
:10169800034687F83C3097F83D30002B03D197F884
:1016A8003C30002B33D097F83D30002B03D07B6AB9
:1016B8001846FFF721FE97F83C30002B03D07B6AD1
:1016C8001846FFF73FFE002387F83F3018E097F8E9
:1016D8003F307A6A0A339B0013445B681B681C68B6
:1016E80097F83F307A6A0A339B0013445B681846C0
:1016F80001210022A04797F83F30013387F83F3097
:101708007B6A93F8AD2097F83F309342DFD30023EC
:1017180087F83E3023E197F83E201346DB00134458
:10172800DB00B0337A6A13440433184600F0A2F998
:101738000346002B00F00E8197F83E201346DB008D
:101748001344DB00B0337A6A13440433184600F0BC
:10175800A7F997F83E30002B40F0C6807B6AD3F893
:10176800DC31002B00F0C0807B6AB4331846FFF7E9
:10177800D7FA03467B877B6AFC331846FFF7D0FA13
:1017880003463B877B6A93F8AE30184600F0ECFFBF
:1017980078637C8F4FF000057B6A5B6A1B680133B6
:1017A8001A464FF0000302FB05F004FB03F1014465
:1017B800A4FB02454B191D4622462B465902F961E6
:1017C800F96941EAD251F9615102B961D7E90623B1
:1017D8004FEA431949EAD2694FEA4218B8EB0208BE
:1017E80069EB030918EB040849EB05094FEA89126C
:1017F8007A617B6943EA98637B614FEA88113961B2
:10180800D7E90423B2EB080263EB0903C7E9042311
:10181800D7E90401001941EB05017B6B1A464FF02B
:101828000003FEF7D7FC02460B4613463B633C8F8A
:101838004FF000057B6A5B6A1B6801331A464FF05C
:10184800000302FB05F004FB03F10144A4FB02457D
:101858004B191D4622462B465902F960F96841EAA0
:10186800D251F9605102B960D7E902234FEA431B0C
:101878004BEAD26B4FEA421ABAEB020A6BEB030B44
:101888001AEB040A4BEB050B4FEA8B127A607B6864
:1018980043EA9A637B604FEA8A113960D7E90023EB
:1018A800B2EB0A0263EB0B03C7E90023D7E9000197
:1018B800001941EB05017B6B1A464FF00003FEF758
:1018C80089FC02460B461346FB627B6AD3F8DC317F
:1018D8001B681C687B6AD3F8DC113A6BFB6A084604
:1018E80011461A46A04735E097F83E20796A134614
:1018F800DB001344DB000B44F0335B68002B29D07A
:1019080097F83E201346DB001344DB0097F83E208F
:10191800796A1346DB001344DB000B44F0335B6841
:101928001B681C6897F83E20796A1346DB0013444D
:10193800DB000B44F033596897F83E201346DB0070
:101948001344DB0003F1B0027B6A134404330846F6
:101958001946A04797F83E30013387F83E307B6A36
:1019680093F8D42197F83E309342FFF4D4AE403731
:10197800BD46BDE8B08F00BF80B483B000AF7860CB
:1019880039603A687B681A607B6818460C37BD4630
:101998005DF8047B704700BF80B483B000AF786007
:1019A80039603A687B681A607B6818460C37BD4610
:1019B8005DF8047B704700BF80B483B000AF7860E7
:1019C80039603B6848331A467B681A603B684C3379
:1019D8001A467B685A603B6804331A467B689A60EB
:1019E8003B680C331A467B68DA607B6818460C370C
:1019F800BD465DF8047B704780B483B000AF786063
:101A080039603B6804331A467B681A607B6818465D
:101A18000C37BD465DF8047B704700BF80B588B0C1
:101A280004AFF860B960FA71BB71F968FA7997F98F
:101A38000630B8690090F8690190386A029097F802
:101A4800240003900846B968FFF7C4F9FB68084A00
:101A58001A60BB6808331A46FB68C3F8D821FB68CC
:101A68000022C3F8DC21FB6818461037BD4680BD4C
:101A78009897000880B483B000AF78607B68DB6813
:101A88001A687B681B8D1340002B0CBF00230123B1
:101A9800DBB218460C37BD465DF8047B704700BFC3
:101AA80080B483B000AF78607B68DB687A68D268FE
:101AB80011687A68128DD2430A401A600C37BD4605
:101AC8005DF8047B704700BF80B483B000AF7860D6
:101AD8007B68DB687A68D268126822F080021A6034
:101AE8000C37BD465DF8047B704700BF80B483B0F7
:101AF80000AF78607B68DB687A68D268126842F069
:101B080080021A600C37BD465DF8047B704700BF41
:101B180080B483B000AF78600B46FB70FB78002B75
:101B280008D07B68DB687A68D268126842F4007271
:101B38001A6007E07B68DB687A68D268126822F46A
:101B480000721A600C37BD465DF8047B704700BF11
:101B580080B483B000AF78600B46FB70FB78002B35
:101B680008D07B68DB687A68D268126842F48072B1
:101B78001A6007E07B68DB687A68D268126822F42A
:101B880080721A600C37BD465DF8047B704700BF51
:101B980080B483B000AF78600B46FB70FB78002BF5
:101BA80008D07B68DB687A68D268126822F48042C1
:101BB8001A6007E07B68DB687A68D268126842F4CA
:101BC80080421A600C37BD465DF8047B704700BF41
:101BD80080B483B000AF78607B68DB687A68D268CD
:101BE800126842F400621A600C37BD465DF8047B47
:101BF800704700BF80B483B000AF78607B685B69D2
:101C08001B6803F04003002B0CBF00230123DBB249
:101C180018460C37BD465DF8047B704780B483B026
:101C280000AF78607B685B691B6803F02003002BBA
:101C38000CBF00230123DBB218460C37BD465DF804
:101C4800047B704780B483B000AF78607B685B69C1
:101C58001B6803F01003002B0CBF00230123DBB229
:101C680018460C37BD465DF8047B704780B483B0D6
:101C780000AF78607B685B691B6803F00203002B88
:101C88000CBF00230123DBB218460C37BD465DF8B4
:101C9800047B704780B483B000AF78607B685B6971
:101CA8001B6803F00103002B0CBF00230123DBB2E8
:101CB80018460C37BD465DF8047B704780B483B086
:101CC80000AF78607B685B697A685269126822F0B5
:101CD80040021A600C37BD465DF8047B704700BFB0
:101CE80080B483B000AF78607B685B697A685269BA
:101CF800126822F020021A600C37BD465DF8047B9A
:101D0800704700BF80B483B000AF78607B685B69C0
:101D18007A685269126822F010021A600C37BD46C0
:101D28005DF8047B704700BF80B483B000AF786073
:101D38007B685B697A685269126822F002021A604D
:101D48000C37BD465DF8047B704700BF80B483B094
:101D580000AF78607B685B697A685269126822F024
:101D680001021A600C37BD465DF8047B704700BF5E
:101D780080B582B000AF7860F970BA707B7097F860
:101D88002030002B02D07868FFF722FF7868012105
:101D980000F09AFB3B7C002B03D0786800F0D0FB66
:101DA80002E0786800F0BCFB3B7D002B03D078682C
:101DB80000F0E8FB02E0786800F0D4FB3B7E002BE3
:101DC80003D07868FFF792FE02E07868FFF77CFEA0
:101DD8003B7F78681946FFF79BFEFB78002B0CD0F9
:101DE8007B787868194600F0FFFB3B7F002B08D012
:101DF80078680121FFF7ACFE03E078680021FFF75F
:101E0800A7FEBB7878681946FFF7C2FEFB787868AA
:101E1800194600F0C9FB0837BD4680BD80B483B0C1
:101E280000AF78600B46FB707B685B691B6803F04A
:101E38000203002B14BF00230123DBB2002BF3D1D4
:101E48007B689B69FA781A607B685B691B6803F09A
:101E58000103002B14BF00230123DBB2002BF3D1B5
:101E68007B689B691B68DBB218460C37BD465DF87A
:101E7800047B704780B483B000AF786039603B68FA
:101E880044331A467B681A603B6830331A467B68CD
:101E98005A607B6818460C37BD465DF8047B70476E
:101EA80080B483B000AF78607B6800221A607B68DA
:101EB800FF221A717B6800221A647B6818460C3767
:101EC800BD465DF8047B704780B586B004AF786086
:101ED8007B680D4A00921022019201220292184654
:101EE8000A4936220A4BFEF729FF7B68B4331846A5
:101EF8000649FFF781FD7B68064A1A607B68184629
:101F08000837BD4680BD00BF2038024000100040A1
:101F1800403802408097000880B500AF0148FEF7BE
:101F28004DFD80BD0429002080B500AF084B1B681B
:101F380003F00103002B08D10648FFF7C5FF044B47
:101F480001221A60044805F027FA024B184680BDA2
:101F58005423002004290020211F000880B586B0E2
:101F680004AF78607B68114A0092114A01924FF4DD
:101F7800803202920022039218460E490222182348
:101F8800FFF74CFD7B6803F5F07318460949FFF726
:101F9800F3FC7B68084A1A607B68032283F8AF2049
:101FA8007B6818460837BD4680BD00BF44380240EC
:101FB80024380240004001406897000880B500AF0F
:101FC8000148FEF7D3FC80BD7023002080B500AF28
:101FD800084B1B6803F00103002B08D10648FFF7E4
:101FE800BDFF044B01221A60044805F0D5F9024BE5
:101FF800184680BD5823002070230020C51F000804
:1020080080B586B004AF78607B680D4A00920D4AAF
:1020180001924FF4003202920022039218460A49B4
:1020280001221923FEF7D6FE7B68084A1A607B68EE
:10203800032283F8AF207B6818460837BD4680BD69
:1020480044380240243802400044014050970008B8
:1020580080B500AF0148FEF761FC80BD5425002023
:1020680080B500AF084B1B6803F00103002B08D1B3
:102078000648FFF7C5FF044B01221A60044805F023
:102088008BF9024B184680BD5C23002054250020A4
:102098005920000880B586B004AF78607B680D4A87
:1020A80000920D4A01924FF480220292002203927C
:1020B80018460A4901221A23FEF78CFE7B68084A53
:1020C8001A607B68032283F8AF207B6818460837BC
:1020D800BD4680BD443802402438024000480140D3
:1020E8003897000880B500AF0148FEF7EFFB80BDC8
:1020F8002C27002080B500AF084B1B6803F00103B4
:10210800002B08D10648FFF7C5FF044B01221A60CF
:10211800044805F041F9024B184680BD60230020B1
:102128002C270020ED20000880B586B004AF786029
:102138007B68144A0092144A0192402202920122BA
:1021480003921846114902222B23FFF767FC7B688C
:1021580003F5F07318460D49FFF70EFC7B6803F58D
:10216800F27318460949FFF747FC7B68084A1A606A
:102178007B68092283F8AF207B6818460837BD467C
:1021880080BD00BF4038024020380240001800409F
:102198002097000880B500AF0148FEF76FFB80BDAF
:1021A800BC29002080B500AF084B1B6803F0010371
:1021B800002B08D10648FFF7B7FF044B01221A602D
:1021C800044805F0E9F8024B184680BD6423002056
:1021D800BC2900209D21000880B586B004AF786036
:1021E8007B680D4A00920D4A0192802202920122D8
:1021F800039218460A4902222C23FEF7EBFD7B685E
:10220800084A1A607B68092283F8AF207B68184661
:102218000837BD4680BD00BF403802402038024024
:10222800001C00400897000880B500AF0148FEF781
:10223800FDFA80BDA42B002080B500AF084B1B68B9
:1022480003F00103002B08D10648FFF7C5FF044B34
:1022580001221A60044805F09FF8024B184680BD19
:1022680068230020A42B00203122000880B586B006
:1022780004AF78607B680D4A00920D4A01924FF4D2
:10228800807202920122039218460A4902222D23E3
:10229800FEF7A0FD7B68084A1A607B68092283F86C
:1022A800AF207B6818460837BD4680BD40380240DD
:1022B8002038024000200040F096000880B500AFAA
:1022C8000148FEF78BFA80BD7C2D002080B500AF59
:1022D800084B1B6803F00103002B08D10648FFF7E1
:1022E800C5FF044B01221A60044805F055F8024B5B
:1022F800184680BD6C2300207C2D0020C5220008D4
:1023080080B483B000AF78600B46FB70FB78002B7D
:1023180013D07B685B687A68526811687A6892683B
:10232800D2430A401A607B681B687A681268116891
:102338007A6892680A431A6012E07B685B687A6878
:10234800526811687A6892680A431A607B681B6849
:102358007A68126811687A689268D2430A401A60EB
:102368000C37BD465DF8047B704700BF80B483B06E
:1023780000AF78607B681B681A687B689B681340AD
:10238800002B0CBF00230123DBB218460C37BD46D7
:102398005DF8047B704700BF80B500AF02F0DCFF3A
:1023A8000346184600F016F880BD00BF80B500AFA0
:1023B80003F01CF80346184600F00CF880BD00BF77
:1023C80080B500AF03F05CF80346184600F002F849
:1023D80080BD00BF2DE9F04786B004AF78607B6808
:1023E8009B6A002B28D07B689B6A1B681C687B68EB
:1023F800D3F828807868FFF725FC03461E467868DE
:10240800FFF7F8FB03461D467868FFF707FC03460D
:102418009A467868FFF72AFC034699467868FFF7DA
:1024280039FC0346CDF800A0CDF80490029340464D
:10243800796832462B46A0477868FFF763FC7868CE
:10244800FFF73CFC7868FFF74BFC7868FFF76CFCFB
:102458007868FFF77BFC0837BD46BDE8F08700BF0A
:1024680080B584B000AFF860B9607A603B60FB6803
:102478001846F96A3A6B7B6B01F0BCFFFB68BA68D7
:10248800DA60FB687A681A61FB683A685A61FB6827
:10249800BA699A61FB68FA69DA61FB683A6A1A6292
:1024A800FB687A6A5A62FB6800229A62FB6897F8AE
:1024B800282083F82C20FB68002283F82D20FB6855
:1024C80018461037BD4680BD80B582B000AF786031
:1024D8000B46FB70FB78002B11D07B681846012156
:1024E800FFF70EFF7B68DB687A68D268126842F0F3
:1024F80040021A607B68002283F82D200CE07B687C
:10250800DB687A68D268126822F040021A607B6839
:1025180018460021FFF7F4FE0837BD4680BD00BF0E
:1025280080B483B000AF78607B68DB687A68D26873
:1025380012681A600C37BD465DF8047B704700BF0F
:1025480080B483B000AF78607B68DB687A68D26853
:10255800126842F001021A600C37BD465DF8047B30
:10256800704700BF80B483B000AF78607B68DB68D9
:102578007A68D26812681A600C37BD465DF8047B29
:10258800704700BF80B483B000AF78607B68DB68B9
:102598007A68D268126842F002021A600C37BD46A7
:1025A8005DF8047B704700BF80B483B000AF7860EB
:1025B8000B46FB70FB78002B08D07B68DB687A68D9
:1025C800D268126842F004021A6007E07B68DB6890
:1025D8007A68D268126822F004021A600C37BD4685
:1025E8005DF8047B704700BF80B483B000AF7860AB
:1025F8000B46FB707B68DB687A68D268126822F049
:1026080018021A607B68DB687A68D2681168FA7801
:102618000A431A600C37BD465DF8047B704700BF5B
:1026280080B487B000AF234B7B61234B1B6803F05A
:102638000403002B01D0214B35E01F4B1B6803F02E
:102648000803002B2ED01E4B1B6803F03F03FB60D2
:102658001B4B1A6847F6C07313409B09BB60184BA5
:102668001B6803F440331B0C7B60164A7B681344D9
:102678001B787B60124B1B6803F48003002B02D08D
:102688000E4B3B6101E00B4B3B613A69FB68B2FBC7
:10269800F3F3BA6802FB03F33B603A687B68B2FB6A
:1026A800F3F37B617B6918461C37BD465DF8047BF4
:1026B800704700BF0024F4000838024000127A0076
:1026C800043802401000002080B582B000AFFFF748
:1026D800A7FF38600E4B1B681B099BB203F00F0362
:1026E800FB80FB8803F00803002B02D10123FB8049
:1026F80006E0FB88A3F10802064B33F81230FB8092
:10270800FB883A68B2FBF3F318460837BD4680BD2C
:10271800083802401400002080B485B000AF03469A
:10272800FB710F4B1A68FB7922FA03F39BB203F093
:102738000703FB81FB8903F00403002B02D101236B
:10274800FB8105E0FB891A1F064B33F81230FB8129
:10275800FB8918461437BD465DF8047B704700BFF7
:10276800083802401400002080B586B000AF7860B9
:10277800FFF7AAFFF8607B68002B05D00A20FFF757
:10278800CBFF0346FB8204E00D20FFF7C5FF03469D
:10279800FB82FB8AFA68B2FBF3F33B61FB8A012BED
:1027A80002D93B695B003B613B6918461837BD4657
:1027B80080BD00BF80B500AF0120FEF75FFAFEF7CD
:1027C800ABF9FEF781F9FEF78BF9FEF783F9FEF70F
:1027D80095F90120FEF71AF980BD00BF80B500AF5A
:1027E80002480349FEF7A6F9FEE700BFC42100200E
:1027F800DC21002080B500AF02480349FEF79AF9B2
:10280800FEE700BF282200204022002080B500AF4C
:1028180002480349FEF78EF9FEE700BF8C2200202C
:10282800A422002080B500AF02480349FEF782F9D0
:10283800FEE700BFF02200200823002080B500AF8B
:1028480003F0D6F90346184600F050F880BD00BFE3
:1028580080B500AF03F012FA0346184600F046F8B8
:1028680080BD00BF80B500AF03F050FA034618469C
:1028780000F03CF880BD00BF80B500AF03F08EFAD1
:102888000346184600F032F880BD00BF80B584B01A
:1028980000AFF860B9607A603B60FB681846F96A77
:1028A8003A6B7B6B01F0A6FDFB68BA68DA60FB68DF
:1028B8007A681A61FB683A685A61FB68BA699A6172
:1028C800FB68FA69DA61FB683A6A1A62FB6897F88A
:1028D800242083F82420FB6897F8282083F83620E2
:1028E800FB6818461037BD4680BD00BF90B589B05B
:1028F80002AF78607B689B6A002B40D0786800F054
:102908004FF803463B73786800F0EAF803467B7596
:10291800786800F0A9F803467B74786800F054F8EA
:1029280003467B73786800F0C7F803463B75786800
:1029380000F0AEF80346FB74786800F0E5F803464B
:10294800BB74786800F07CF803463B74786800F044
:1029580063F80346FB73786800F04AF80346BB73D4
:102968007B689B6A1B681C687B68996ABB8AADF8A0
:10297800003007F10C030CCB08467968A04778684B
:1029880000F004F81C37BD4690BD00BF80B483B08A
:1029980000AF78600C37BD465DF8047B704700BF18
:1029A80080B483B000AF78607B68DB681B6803F491
:1029B8000073002B0CBF00230123DBB218460C3731
:1029C800BD465DF8047B704780B483B000AF786083
:1029D8007B68DB681B6803F48073002B0CBF002343
:1029E8000123DBB218460C37BD465DF8047B7047FF
:1029F80080B483B000AF78607B68DB681B6803F045
:102A08008003002B0CBF00230123DBB218460C37D0
:102A1800BD465DF8047B704780B483B000AF786032
:102A28007B68DB681B6803F04003002B0CBF0023A6
:102A38000123DBB218460C37BD465DF8047B7047AE
:102A480080B483B000AF78607B68DB681B6803F0F4
:102A58002003002B0CBF00230123DBB218460C37E0
:102A6800BD465DF8047B704780B483B000AF7860E2
:102A78007B68DB681B6803F01003002B0CBF002386
:102A88000123DBB218460C37BD465DF8047B70475E
:102A980080B483B000AF78607B68DB681B6803F0A4
:102AA8000803002B0CBF00230123DBB218460C37A8
:102AB800BD465DF8047B704780B483B000AF786092
:102AC8007B68DB681B6803F00403002B0CBF002342
:102AD8000123DBB218460C37BD465DF8047B70470E
:102AE80080B483B000AF78607B68DB681B6803F054
:102AF8000203002B0CBF00230123DBB218460C375E
:102B0800BD465DF8047B704780B483B000AF786041
:102B18007B68DB681B6803F00103002B0CBF0023F4
:102B28000123DBB218460C37BD465DF8047B7047BD
:102B380080B483B000AF78607B681B6A1B6803F4BD
:102B48000043002B0CBF00230123DBB218460C37CF
:102B5800BD465DF8047B704780B483B000AF7860F1
:102B68007B681B6A1B6803F48043002B0CBF00239F
:102B78000123DBB218460C37BD465DF8047B70476D
:102B880080B483B000AF78607B681B6A1B6803F46D
:102B98008053002B0CBF00230123DBB218460C37EF
:102BA800BD465DF8047B704780B483B000AF7860A1
:102BB8007B681B6A1B6803F40063002B0CBF0023AF
:102BC8000123DBB218460C37BD465DF8047B70471D
:102BD80080B483B000AF78607B681B6A1B6803F41D
:102BE8008063002B0CBF00230123DBB218460C378F
:102BF800BD465DF8047B704780B483B000AF786051
:102C08007B681B6A1B6803F40073002B0CBF00234E
:102C18000123DBB218460C37BD465DF8047B7047CC
:102C280080B483B000AF78607B681B6A1B6803F4CC
:102C38008073002B0CBF00230123DBB218460C372E
:102C4800BD465DF8047B704780B483B000AF786000
:102C58007B681B6A7A68126A126822F400421A605A
:102C68000C37BD465DF8047B704700BF80B483B065
:102C780000AF78607B681B6A7A68126A126822F46F
:102C880080421A600C37BD465DF8047B704700BF70
:102C980080B483B000AF78607B681B6A7A68126A78
:102CA800126822F480521A600C37BD465DF8047B26
:102CB800704700BF80B483B000AF78607B681B6A40
:102CC8007A68126A126822F400621A600C37BD46EC
:102CD8005DF8047B704700BF80B483B000AF7860B4
:102CE8007B681B6A7A68126A126822F480621A602A
:102CF8000C37BD465DF8047B704700BF80B483B0D5
:102D080000AF78607B681B6A7A68126A126822F4DE
:102D180000721A600C37BD465DF8047B704700BF2F
:102D280080B483B000AF78607B681B6A7A68126AE7
:102D3800126822F480721A600C37BD465DF8047B75
:102D4800704700BF80B483B000AF78607B681B6AAF
:102D58001B6803F08003002B0CBF00230123DBB2A8
:102D680018460C37BD465DF8047B704780B483B0C5
:102D780000AF78607B681B6A1B6803F04003002B78
:102D88000CBF00230123DBB218460C37BD465DF8A3
:102D9800047B704780B483B000AF78607B681B6A9F
:102DA8001B6803F01003002B0CBF00230123DBB2C8
:102DB80018460C37BD465DF8047B704780B483B075
:102DC80000AF78607B681B6A1B6803F00803002B60
:102DD8000CBF00230123DBB218460C37BD465DF853
:102DE800047B704780B483B000AF78607B681B6A4F
:102DF8001B6803F00403002B0CBF00230123DBB284
:102E080018460C37BD465DF8047B704780B483B024
:102E180000AF78607B681B6A1B6803F00203002B15
:102E28000CBF00230123DBB218460C37BD465DF802
:102E3800047B704780B483B000AF78607B681B6AFE
:102E48001B6803F00103002B0CBF00230123DBB236
:102E580018460C37BD465DF8047B704780B400AF58
:102E6800074B074A126822F001021A60044B1B68DC
:102E780003F00203002BF9D1BD465DF8047B7047CF
:102E88000038024080B400AF074B074A126842F08E
:102E980001021A60044B1B6803F00203002BF9D0EF
:102EA800BD465DF8047B70470038024080B483B0AB
:102EB80000AF074B1B687B607B68054B1B68054BA5
:102EC8001B68002318460C37BD465DF8047B704725
:102ED800083802400438024080B582B000AF7860FC
:102EE800FFF7E4FF0346002B0BD17B68002B06D0CD
:102EF800FFF7C8FF044B044A12681A6001E0FFF7A5
:102F0800ADFF0837BD4680BD0838024080B400AF29
:102F1800094B1B6803F00403002B05D1074B1B6802
:102F280003F48003002B01D0012300E0002318469E
:102F3800BD465DF8047B70470838024004380240FB
:102F480080B400AF044B1B6803F008031846BD4665
:102F58005DF8047B704700BF0838024080B400AFBA
:102F6800074B074A126822F080721A60044B1B68EC
:102F780003F00073002BF9D1BD465DF8047B704760
:102F88000038024080B400AF074B074A126842F08D
:102F980080721A60044B1B6803F00073002BF9D091
:102FA800BD465DF8047B70470038024080B582B0AA
:102FB80000AF13460246FA710A46BA80BB71FFF7A2
:102FC800BFFF0346002B3CD1FFF7C8FFFB7918462B
:102FD80000F03EF8BB88184600F058F8BB79184650
:102FE80000F070F8FFF762FF0346002B0AD0164B7B
:102FF800154A126822F480021A60134B124A1268AA
:103008001A6010E0FFF782FF0346002B0BD00E4B2F
:103018000D4A126822F480021A600B4B0A4A1268A1
:1030280042F480021A60094B084A126822F003022F
:103038001A60064B054A126842F002021A60FFF74E
:10304800A1FF0837BD4680BD043802400838024059
:1030580080B483B000AF0346FB71FB79012B0ED916
:10306800FB793F2B0BD8084B074A126822F03F0226
:103078001A60054B044A1168FA790A431A600C373A
:10308800BD465DF8047B70470438024080B483B0C5
:1030980000AF0346FB800A4A094B1B6823F4FF4331
:1030A80023F040031360064B054A1168FA88920121
:1030B8000A431A600C37BD465DF8047B704700BFB1
:1030C8000438024080B483B000AF0346FB71184B4C
:1030D800174A126822F440321A60FB79022B04D195
:1030E800134B134A12681A601CE0FB79042B06D1B3
:1030F8000F4B0F4A126842F480321A6012E0FB79D3
:10310800062B06D10A4B0A4A126842F400321A60AA
:1031180008E0FB79082B05D1054B054A126842F4F3
:1031280040321A600C37BD465DF8047B704700BF1B
:103138000438024080B483B000AF78607B68002216
:103148001A607B6800221A717B6818460C37BD46E6
:103158005DF8047B704700BF80B485B000AFF860AD
:10316800B9601346FB71FB68BA681A60FB68FA79A4
:103178001A711437BD465DF8047B7047B0B586B048
:1031880000AFF860B9607A603B60FB681846796CFC
:10319800BA6CFB6C01F02EF9FB680C330F241D464A
:1031A80004E02846FFF7C6FF0835013CB4F1FF3FAD
:1031B800F7D1FB68BA68C3F88C20FB687A68C3F853
:1031C8009020FB683A68C3F89420FB68BA6AC3F891
:1031D8009820FB68FA6AC3F89C20FB683A6BC3F82E
:1031E800A020FB687A6BC3F8A420FB68BA6BC3F80D
:1031F800A820FB68FA6BC3F8AC20FB683A6CC3F8EC
:10320800B02000237B610FE07B690133DB00FA68A3
:1032180013441A1D7B69DBB21046F9681A46FFF79A
:103228009BFF7B6901337B617B690F2BECDDFB68BE
:1032380018461837BD46B0BD80B483B000AF78607B
:103248000B46FB707B68D3F88C307A68D2F88C20F8
:103258001168FA785200032000FA02F2D2430A40B9
:103268001A607B68D3F88C307A68D2F88C201168A1
:10327800FA785200012000FA02F20A431A607B68C9
:10328800D3F890307A68D2F890201168FA78520012
:10329800032000FA02F2D2430A401A607B68D3F88E
:1032A80090307A68D2F8902012681A600C37BD46C0
:1032B8005DF8047B704700BF80B483B000AF7860CE
:1032C8000B46FB707B68D3F88C307A68D2F88C2078
:1032D8001168FA785200032000FA02F2D2430A4039
:1032E8001A607B68D3F88C307A68D2F88C20116821
:1032F800FA785200022000FA02F20A431A607B6848
:10330800D3F890307A68D2F890201168FA78520091
:10331800032000FA02F2D2430A401A607B68D3F80D
:1033280090307A68D2F8902012681A600C37BD463F
:103338005DF8047B704700BF80B483B000AF78604D
:103348000B46FB707B68D3F898307A68D2F89820DF
:103358001168FA785200032000FA02F2D2430A40B8
:103368001A607B68D3F898307A68D2F89820116888
:10337800FA785200022000FA02F20A431A600C3767
:10338800BD465DF8047B704780B483B000AF7860B9
:103398000B46FB707B68D3F894307A68D2F8942097
:1033A8001168FA785200032000FA02F2D2430A4068
:1033B8001A607B68D3F894307A68D2F89420116840
:1033C800FA785200032000FA02F20A431A600C3716
:1033D800BD465DF8047B704780B483B000AF786069
:1033E8000B46FB707B68D3F8A430FA78012101FA08
:1033F80002F292B21A600C37BD465DF8047B704742
:1034080080B483B000AF78600B46FB707B68D3F85C
:10341800A430FA78012101FA02F212041A600C377A
:10342800BD465DF8047B704780B483B000AF786018
:103438000B46FB70FB780133DB007A6813440433D6
:1034480018460C37BD465DF8047B704780B485B0DC
:1034580000AF786013460A46FA70BB70BB78072B3A
:1034680003D87B68D3F8AC3002E07B68D3F8B0307F
:10347800FB60FB681A68BB7803F007039B000F2109
:1034880001FA03F3DB431A40FB681A60FB681A6809
:10349800F978BB7803F007039B0001FA03F31A439A
:1034A800FB681A601437BD465DF8047B704700BF9F
:1034B80080B582B000AF78607B681A687B681B793A
:1034C80010461946FFF7B8FE0837BD4680BD00BF55
:1034D80080B582B000AF78607B681A687B681B791A
:1034E80010461946FFF7E8FE0837BD4680BD00BF05
:1034F80080B582B000AF78607B681A687B681B79FA
:1035080010461946FFF718FF0837BD4680BD00BFB3
:1035180080B582B000AF78607B681A687B681B79D9
:1035280010461946FFF730FF0837BD4680BD00BF7B
:1035380080B582B000AF78607B681A687B681B79B9
:1035480010461946FFF748FF0837BD4680BD00BF43
:1035580080B582B000AF78607B681A687B681B7999
:1035680010461946FFF74CFF0837BD4680BD00BF1F
:1035780080B582B000AF78600B46FB707B68196835
:103588007B681B79FA78084611461A46FFF75EFFF2
:103598000837BD4680BD00BF80B500AF02F080FA95
:1035A8000346184600F084F880BD00BF80B500AF20
:1035B80002F076FA0346184600F016F880BD00BF00
:1035C80080B500AF02F0C0FA0346184600F070F864
:1035D80080BD00BF80B500AF02F0B6FA03461846BA
:1035E80000F002F880BD00BF90B585B000AF7860EC
:1035F8007B689B6B002B58D07868FFF711FB03465C
:10360800002B04D001233B727868FFF789FB7868A8
:10361800FFF7F2FA0346002B04D001237B72786887
:10362800FFF76CFB7868FFF7D3FA0346002B04D04A
:103638000123BB727868FFF74FFB7868FFF7B4FA8D
:103648000346002B04D00123FB727868FFF732FB96
:103658007868FFF795FA0346002B04D001233B73E3
:103668007868FFF715FB7868FFF776FA0346002BB2
:1036780004D001237B737868FFF7F8FA7868FFF7BE
:1036880057FA0346002B04D00123BB737868FFF771
:10369800DBFA7B689B6B1B681C687B689B6B184616
:1036A800796807F108030CCBA0471437BD4690BDD5
:1036B80090B585B000AF78607B685B6B002B2ED02F
:1036C8007868FFF7B7FB03463B727868FFF776FB2D
:1036D8000346BB727868FFF799FB03467B727868EC
:1036E800FFF780FB03463B737868FFF73FFB034611
:1036F800BB737868FFF726FB03467B737868FFF790
:1037080049FB0346FB727B685B6B1B681C687B6824
:103718005B6B1846796807F108030CCBA047143790
:10372800BD4690BD80B584B000AFF860B9607A60DE
:103738003B60FB681846B96BFA6B3B6C00F05AFEAD
:10374800FB68BA68DA60FB687A681A61FB683A68ED
:103758005A61FB68BA699A61FB68FA69DA61FB68C1
:103768003A6A1A62FB687A6A5A62FB68BA6A9A62AB
:10377800FB68FA6ADA62FB6897F8302083F8302031
:10378800FB6897F8342083F83120FB684FF47A728D
:103798005A64FB6800229A63FB6800225A63FB683C
:1037A80000229A64FB680022DA64FB6800221A652A
:1037B800FB6800225A65FB6800229A65FB680022B4
:1037C800DA65FB6800221A66FB6800225A66FB6805
:1037D80000221A64FB680022DA63FB6800229A66FA
:1037E800FB6800221A67FB680022DA66FB68184645
:1037F8001037BD4680BD00BF80B483B000AF78608D
:103808007B681B681A687B689B6A1340002B0CBF97
:1038180000230123DBB218460C37BD465DF8047B54
:10382800704700BF80B483B000AF78607B685B6886
:103838007A68526811687A68926A0A431A600C3783
:10384800BD465DF8047B704780B483B000AF7860F4
:103858007B681B681A687B68DB6A1340002B0CBF07
:1038680000230123DBB218460C37BD465DF8047B04
:10387800704700BF80B483B000AF78607B685B6836
:103888007A68526811687A68D26A0A431A600C37F3
:10389800BD465DF8047B704780B483B000AF7860A4
:1038A8007B681B681A687B681B6B1340002B0CBF76
:1038B80000230123DBB218460C37BD465DF8047BB4
:1038C800704700BF80B483B000AF78607B685B68E6
:1038D8007A68526811687A68126B0A431A600C3762
:1038E800BD465DF8047B704780B483B000AF0346E3
:1038F800FB71054B044A1168FA790A431A600C37C0
:10390800BD465DF8047B7047003C024080B400AFC0
:10391800044B044A126842F400721A60BD465DF80E
:10392800047B7047003C024080B400AF044B044A5B
:10393800126842F480621A60BD465DF8047B7047E5
:10394800003C024080B400AF044B044A126842F4C1
:1039580080721A60BD465DF8047B7047003C0240E7
:1039680080B582B000AF78607B689B697A6892699D
:10397800126822F002021A607B689B697A68926971
:10398800126822F010021A607B681B6D002B08D0A9
:103998007B681B6D1B681B687A68126D1046796816
:1039A80098470837BD4680BD80B582B000AF7860C3
:1039B8007B689B697A689269126822F004021A602F
:1039C8007B689B697A689269126822F008021A601B
:1039D8007B685B6D002B08D07B685B6D1B681B6880
:1039E8007A68526D1046796898470837BD4680BD99
:1039F80080B582B000AF78607B689B697A6892690D
:103A0800126822F002021A607B689B697A689269E0
:103A1800126822F010021A607B689B697A689269C2
:103A2800126822F001021A607B689B6D002B08D097
:103A38007B689B6D1B681B687A68926D1046796875
:103A480098470837BD4680BD80B582B000AF786022
:103A58007B689B697A689269126822F004021A608E
:103A68007B689B697A689269126822F008021A607A
:103A78007B689B697A689269126822F001021A6071
:103A88007B68DB6D002B08D07B68DB6D1B681B68CF
:103A98007A68D26D1046796898470837BD4680BD68
:103AA80080B483B000AF78607B6818460C37BD4699
:103AB8005DF8047B704700BF80B500AF074B1B68FB
:103AC80003F00103002B05D1054800F00BF8034B68
:103AD80001221A60024B184680BD00BFF01F00206B
:103AE800F41F002080B582B000AF78607B6818466C
:103AF8000221044A00F0A4F87B6818460837BD463E
:103B080080BD00BF0800002080B500AF01F06CF94F
:103B180003461846002100F063FA80BD80B500AF67
:103B280001F062F903461846012100F059FA80BDF8
:103B380080B500AF01F058F903461846022100F09D
:103B48004FFA80BD80B500AF01F04EF90346184624
:103B5800032100F045FA80BD80B500AF01F044F9BB
:103B680003461846042100F03BFA80BD80B500AF3B
:103B780001F03AF903461846052100F031FA80BDF4
:103B880080B500AF01F030F903461846062100F071
:103B980027FA80BD80B500AF01F026F90346184624
:103BA800072100F01DFA80BD80B400AFBD465DF866
:103BB800047B704780B500AFFFF77EFF03461846C9
:103BC800012100F00DFA80BD80B500AFFFF774FF4A
:103BD80003461846022100F003FA80BD80B500AF05
:103BE800FFF76AFF03461846032100F0F9F980BD84
:103BF80080B500AFFFF760FF03461846042100F0C8
:103C0800EFF980BD80B500AFFFF756FF03461846B1
:103C1800052100F0E5F980BD80B500AFFFF74CFF46
:103C280003461846062100F0DBF980BD80B500AFD9
:103C3800FFF742FF03461846072100F0D1F980BD7F
:103C4800B0B590B000AFF8600B467A60FB72FA68C6
:103C5800FB7A012B02D14FF4001301E04FF48003EB
:103C680010463149314A00F0C5FBFB680C33072484
:103C78001D4604E02846FFF713FF3835013CB4F130
:103C8800FF3FF7D1FB7A012B14D1294BFB63294B5A
:103C9800BB63294B7B63294B3B63294BFB62294B55
:103CA800BB62294B7B62294B3B62294BFB61294B49
:103CB800BB6113E0284BFB63284BBB63284B7B633A
:103CC800284B3B63284BFB62284BBB62284B7B622B
:103CD800284B3B62284BFB61284BBB610023FB75DB
:103CE80070E1FB7DF9685A1C1346DB009B1ADB0068
:103CF8000B44FA7D5A72FB7D032B41D8FA7DF96893
:103D08001346DB009B1ADB000B440833FA6B5A603E
:103D1800FA7DF9681346DB009B1ADB000B44083375
:103D28007A6B9A6040E000BF303802401038024099
:103D38000060024004600240086002400C600240DB
:103D48001060024014600240186002401C6002408B
:103D58002060024024600240006402400464024083
:103D6800086402400C64024010640240146402407B
:103D7800186402401C64024020640240246402402B
:103D8800FA7DF9681346DB009B1ADB000B44083305
:103D9800BA6B5A60FA7DF9681346DB009B1ADB00A0
:103DA8000B4408333A6B9A60FA7DF97D0B465B0049
:103DB8000B44DB001946FB6A0B441946F8681346A6
:103DC800DB009B1ADB00034410335960FA7DF97D50
:103DD8000B465B000B44DB001946BB6A0B441946D3
:103DE800F8681346DB009B1ADB0003441033996024
:103DF800FA7DF97D0B465B000B44DB0019467B6AB4
:103E08000B441946F8681346DB009B1ADB00034491
:103E180018335960FA7DF97D0B465B000B44DB00D3
:103E280019463B6A0B441946F8681346DB009B1A8F
:103E3800DB00034418339960FA7DF97D0B465B007B
:103E48000B44DB001946FB690B441946F868134616
:103E5800DB009B1ADB00034420335960FA7DF97DAF
:103E68000B465B000B44DB001946BB690B44194643
:103E7800F8681346DB009B1ADB0003442033996083
:103E8800FB7DFA7D79680A441178F8685A1C134654
:103E9800DB009B1ADB0003440A461A72FA7DFB7D9D
:103EA80003F001010B465B000B445B001946FB7DE8
:103EB80003F00303D80F03445B101B010B440121DB
:103EC80001FA03F31946F8681346DB009B1ADB0076
:103ED800034428335960FA7DFB7D03F001010B464A
:103EE8005B000B445B001946FB7D03F00303D80F0E
:103EF80003445B101B010B44042101FA03F3194628
:103F0800F8681346DB009B1ADB00034428339960EA
:103F1800FA7DFB7D03F001010B465B000B445B005F
:103F28001946FB7D03F00303D80F03445B101B0104
:103F38000B44082101FA03F31946F8681346DB001D
:103F48009B1ADB00034430335960FA7DFB7D03F094
:103F580001010B465B000B445B001946FB7D03F037
:103F68000303D80F03445B101B010B44102101FA13
:103F780003F31946F8681346DB009B1ADB00034479
:103F880030339960FC7DFB7D03F0010213465B0032
:103F980013445B001A46FB7D03F00303D90F0B445F
:103FA8005B101B011344202202FA03F31946F86838
:103FB800621C1346DB009B1ADB0003445960FB7D3F
:103FC8000133FB75FB7D072B7FF68BAEFB68002268
:103FD800C3F8CC21FB6818464037BD46B0BD00BFCA
:103FE80090B587B002AF786039607B68D3F8CC3180
:103FF800002B39D03A681346DB009B1ADB000833E4
:104008007A6813440433FB60F868FFF745FC0346FD
:10401800FB72F868FFF7F0FB0346BB72F868FFF71E
:1040280013FC03467B72FB7A002B02D0F868FFF77B
:1040380049FC7B7A002B02D0F868FFF71BFCBB7A9F
:10404800002B02D0F868FFF7EDFB7B68D3F8CC3182
:104058001B681C687B68D3F8CC11FA7A7B7AB87A2B
:1040680000900846F968A0471437BD4690BD00BFC8
:1040780080B584B000AF78607B68002B05D0786885
:1040880003F07EFC0346012B01D8012300E0002346
:10409800002B01D0002397E07B681B785BB2413B83
:1040A800272B73D801A252F823F000BF554100080E
:1040B8005D410008654100086D4100087541000830
:1040C8007D410008854100088D41000895410008A0
:1040D8009541000895410008954100089541000860
:1040E8009541000895410008954100089541000850
:1040F8009541000895410008954100089541000840
:10410800954100089541000895410008954100082F
:10411800954100089541000895410008954100081F
:10412800954100089541000895410008554100084F
:104138005D410008654100086D41000875410008AF
:104148007D410008854100088D41000800F074FE9B
:10415800F8601DE000F0C2FEF86019E000F010FF02
:10416800F86015E000F05EFFF86011E000F0ACFFC9
:10417800F8600DE000F0FAFFF86009E001F048F897
:10418800F86005E001F096F8F86001E000231BE014
:10419800FB681846FEF7EAF8034683F00103DBB232
:1041A800002B04D0FB6818460121FEF7A9F87B68AC
:1041B8000133184603F0F6F8B860BB68DBB2F8685C
:1041C8001946FFF731F9034618461037BD4680BD3A
:1041D80080B582B000AF78607B68084A1A607B6857
:1041E800184601F0E3F90023002B02D0786803F0A9
:1041F800CBF87B6818460837BD4680BD489600084E
:1042080080B582B000AF78607868FFF7E1FF786822
:1042180003F0BAF87B6818460837BD4680BD00BF72
:1042280080B582B000AF78607B68084A1A607B6806
:10423800184601F0BBF90023002B02D0786803F080
:10424800A3F87B6818460837BD4680BD609600080D
:1042580080B582B000AF78607868FFF7E1FF7868D2
:1042680003F092F87B6818460837BD4680BD00BF4A
:1042780080B582B000AF78607B68084A1A607B68B6
:10428800184601F093F90023002B02D0786803F058
:104298007BF87B6818460837BD4680BD78960008CD
:1042A80080B582B000AF78607868FFF7E1FF786882
:1042B80003F06AF87B6818460837BD4680BD00BF22
:1042C80080B582B000AF78607B68084A1A607B6866
:1042D800184601F06BF90023002B02D0786803F030
:1042E80053F87B6818460837BD4680BD909600088D
:1042F80080B582B000AF78607868FFF7E1FF786832
:1043080003F042F87B6818460837BD4680BD00BFF9
:1043180080B582B000AF78607B68084A1A607B6815
:10432800184601F06BF90023002B02D0786803F0DF
:104338002BF87B6818460837BD4680BDA89600084C
:1043480080B582B000AF78607868FFF7E1FF7868E1
:1043580003F01AF87B6818460837BD4680BD00BFD1
:1043680080B582B000AF78607B68084A1A607B68C5
:10437800184601F043F90023002B02D0786803F0B7
:1043880003F87B6818460837BD4680BDC09600080C
:1043980080B582B000AF78607868FFF7E1FF786891
:1043A80002F0F2FF7B6818460837BD4680BD00BFA3
:1043B80080B582B000AFFFF7B7FAFFF7A7FAFFF7AB
:1043C800C1FA0520FFF790FA0120FEF785FD1023BA
:1043D800FB714FF4A873BB8002237B807B88DBB220
:1043E800F979BA88084611461A46FEF7DFFD0837FC
:1043F800BD4680BD80B485B000AFF860B9607A6012
:104408003B60FB68BA681A60FB687A685A60FB68A8
:104418003A689A60FB6818461437BD465DF8047B15
:10442800704700BF80B584B000AFF8607A603B6029
:104438000B46FB72FB6818462849294A4FF48073DB
:10444800FFF7D8FFFB68FA7A1A73FB687A681A6173
:10445800FB683A685A61FB68BA699A61FB68FA694D
:10446800DA61FB683A6A1A62FB687A6A5A62FB6820
:10447800BA6A9A62FB68FA6ADA62FB683A6B1A638C
:10448800FB687A6B5A63FB68BA6B9A63FB68FA6BD2
:10449800DA63FB683A6C1A64FB687A6C5A64FB68E6
:1044A800BA6C9A64FB68FA6CDA64FB6800221A65D5
:1044B800FB6800225A65FB6800229A65FB680022A7
:1044C800DA65FB68012283F86020FB68012283F823
:1044D8006120FB6818461037BD4680BD443802404D
:1044E8002438024080B500AF074B1B6803F0010376
:1044F800002B05D1054800F00BF8034B01221A6088
:10450800024B184680BD00BFB81E0020C41E002004
:1045180080B590B00EAF78607B68134A0092134A5A
:104528000192134A0292134A0392134A0492134ABD
:104538000592134A0692134A0792134A0892134A9D
:104548000992134A0A92134A0B92134A0C92134A7D
:104558000D9218460121124A124BFFF763FF7B6840
:1045680018460837BD4680BD002001404C20014058
:104578000C20014010200140242001402820014047
:104588002C20014030200140342001403C200140D3
:10459800402001404420014048200140382001408B
:1045A800042001400820014080B500AF074B1B687C
:1045B80003F00103002B05D1054800F00BF8034B6D
:1045C80001221A60024B184680BD00BFBC1E0020A5
:1045D800281F002080B590B00EAF78607B68134A22
:1045E8000092134A0192134A0292134A0392134A01
:1045F8000492134A0592134A0692134A0792134AE1
:104608000892134A0992134A0A92134A0B92134AC0
:104618000C92134A0D9218460221124A124BFFF7C8
:1046280001FF7B6818460837BD4680BD0021014060
:104638004C2101400C21014010210140242101405E
:10464800282101402C210140302101403421014022
:104658003C210140402101404421014048210140C2
:1046680038210140042101400821014080B500AFF4
:10467800074B1B6803F00103002B05D1054800F028
:104688000BF8034B01221A60024B184680BD00BF8D
:10469800C01E00208C1F002080B590B00EAF78603F
:1046A8007B68134A0092134A0192134A0292134AF2
:1046B8000392134A0492134A0592134A0692134A24
:1046C8000792134A0892134A0992134A0A92134A04
:1046D8000B92134A0C92134A0D9218460321124A60
:1046E800124BFFF79FFE7B6818460837BD4680BD12
:1046F800002201404C2201400C22014010220140BE
:1047080024220140282201402C220140302201406D
:10471800342201403C220140402201404422014011
:104728004822014038220140042201400822014069
:1047380080B500AF6A4B1B6803F00203002B0CBF67
:1047480000230123DBB2002B18D0654B1B6803F054
:104758000103002B0CBF00230123DBB2002B06D082
:10476800FFF7C0FE03461846FFF742F929E0FFF7B6
:10477800B9FE03461846FFF7F3F822E0584B1B68CA
:1047880003F00403002B0CBF00230123DBB2002B32
:1047980017D0534B1B6803F00103002B0CBF0023F9
:1047A8000123DBB2002B06D0FFF79CFE0346184618
:1047B800FFF74AF905E0FFF795FE03461846FFF7AD
:1047C800F3F8484B1B6803F00203002B0CBF0023CF
:1047D8000123DBB2002B18D0424B1B6803F0010306
:1047E800002B0CBF00230123DBB2002B06D0FFF700
:1047F800DBFE03461846FFF7FBF829E0FFF7D4FE77
:1048080003461846FFF7ACF822E0364B1B6803F066
:104818000403002B0CBF00230123DBB2002B17D0AD
:10482800304B1B6803F00103002B0CBF002301234E
:10483800DBB2002B06D0FFF7B7FE03461846FFF79A
:1048480003F905E0FFF7B0FE03461846FFF7ACF89A
:10485800254B1B6803F00203002B0CBF0023012328
:10486800DBB2002B18D0204B1B6803F00103002B90
:104878000CBF00230123DBB2002B06D0FFF7F6FEA6
:1048880003461846FFF7B4F829E0FFF7EFFE0346A2
:104898001846FFF765F822E0134B1B6803F0040382
:1048A800002B0CBF00230123DBB2002B17D00E4BCB
:1048B8001B6803F00103002B0CBF00230123DBB2AC
:1048C800002B06D0FFF7D2FE03461846FFF7BCF8C8
:1048D80005E0FFF7CBFE03461846FFF765F880BDF5
:1048E80000200140002101400022014090B589B01C
:1048F80002AFF86079813A81FB80FB681B89B7F9C0
:104908000A201BB29A4266DAFB685B89B7F908206D
:104918001BB29A425FDAB7F90820B7F906301A4491
:10492800FB685B891BB29A4206DDFB685B899AB219
:104938003B89D31A9BB2FB8079893A897B893C8968
:10494800F888204480B2013880B20090F86801F0FD
:1049580057FF3B8D1B12FB753B8DBB75FB685B6A74
:104968001846FEF7E5FDFB68DB6A1846FEF7F0FD22
:104978001FE0FB685B6B1B6803F00203002B14BF8E
:1049880000230123DBB2002BF3D1FB681B6BFA7DFC
:104998001A60FB685B6B1B6803F00203002B14BFF3
:1049A80000230123DBB2002BF3D1FB681B6BBA7D1C
:1049B8001A60FB889AB2013A92B2FA801BB2002BB5
:1049C8000CBF00230123DBB2002BD2D1FB68DB6ACA
:1049D8001846FEF7ADFD1C37BD4690BD80B588B0C2
:1049E80002AFF86079813A81FB80FB681B89B7F9CF
:1049F8000A201BB29A4266DAFB685B89B7F908207D
:104A08001BB29A425FDAB7F90A20B7F906301A449E
:104A1800FB681B891BB29A4206DDFB681B899AB2A8
:104A28007B89D31A9BB2FB8079893A897889FB887C
:104A380003449BB2013B9BB238890090F86801F0AF
:104A4800DFFE3B8C1B12FB753B8CBB75FB685B6AFE
:104A58001846FEF76DFDFB68DB6A1846FEF778FD21
:104A68001FE0FB685B6B1B6803F00203002B14BF9D
:104A780000230123DBB2002BF3D1FB681B6BFA7D0B
:104A88001A60FB685B6B1B6803F00203002B14BF02
:104A980000230123DBB2002BF3D1FB681B6BBA7D2B
:104AA8001A60FB889AB2013A92B2FA801BB2002BC4
:104AB8000CBF00230123DBB2002BD2D1FB68DB6AD9
:104AC8001846FEF735FD1837BD4680BD90B585B050
:104AD80002AF78600B467B807B681B6830331C68AC
:104AE8007B681B897A6852891BB212B200927A8855
:104AF8000192786800210022A0470C37BD4690BD7E
:104B080090B589B002AFF86079813A81FB80FB6883
:104B18001B89B7F90A201BB29A4280F28780FB688A
:104B28005B89B7F908201BB29A427FDAB7F90A20E5
:104B3800B7F906301A44FB681B891BB29A4206DD96
:104B4800FB681B899AB27B89D31A9BB2FB80B7F9A1
:104B58000820B7F928301A44FB685B891BB29A42CF
:104B680006DDFB685B899AB23B89D31A9BB23B8509
:104B780079893A897889FB8803449BB2013B9BB2C7
:104B88003C89388D204480B2013880B20090F868A2
:104B980001F036FEBB8D1B12FB75BB8DBB75FB6828
:104BA8005B6A1846FEF7C4FCFB68DB6A1846FEF72A
:104BB800CFFC3B8D3B8130E0FB887B8124E0FB68A8
:104BC8005B6B1B6803F00203002B14BF0023012357
:104BD800DBB2002BF3D1FB681B6BFA7D1A60FB6814
:104BE8005B6B1B6803F00203002B14BF0023012337
:104BF800DBB2002BF3D1FB681B6BBA7D1A607B8993
:104C08009BB2013B9BB27B81B7F90A30002BD6DC03
:104C18003B899BB2013B9BB23B81B7F90830002B23
:104C2800CADCFB68DB6A1846FEF782FC1C37BD4607
:104C380090BD00BF80B582B000AF78600B46FB70B6
:104C48007868362101F014FCFB7803F00303DAB22C
:104C58007B685A757B685B7D032B3AD801A252F8B2
:104C680023F000BF7D4C0008954C0008AD4C0008AF
:104C7800C54C00087868482101F01AFC7B68F022CE
:104C88001A817B684FF4A0725A8122E07868282143
:104C980001F00EFC7B684FF4A0721A817B68F02249
:104CA8005A8116E07868882101F002FC7B68F022BE
:104CB8001A817B684FF4A0725A810AE07868E8216B
:104CC80001F0F6FB7B684FF4A0721A817B68F02232
:104CD8005A810837BD4680BD80B582B000AF786084
:104CE8000B46FB70FB78002B01D0212300E020232A
:104CF8007868194601F0BCFB0837BD4680BD00BF87
:104D080080B594B002AF0A20FBF7D8FE00230093C9
:104D1800002001210022002301F0F2F878642748DE
:104D2800FFF7A6F93864386CFEF7C2FB386CFEF75B
:104D3800EFFB2348FFF79CF9F863F86BFEF7B8FB25
:104D4800F86BFEF7E5FB1F48FFF792F9B863B86BFD
:104D5800FEF7AEFBB86BFEF7DBFB3B46BA6B009287
:104D68001846796CFA6B3B6C01F04AFB3B461846D7
:104D780000214FF4784201F0AFFA3B461846012172
:104D8800FFF758FF3B461846012101F091FA3B46D0
:104D980018464FF47841FFF799FE3B461846002124
:104DA800182201F071FA3B461846074901F0DAFA71
:104DB8003B461846054901F037FAFEE7907E0008A1
:104DC800947E0008987E0008309600089C7E0008B3
:104DD80080B500AFFFF7ECFA0120FBF717FEFFF7ED
:104DE8008FFF184680BD00BF80B500AF074B1B681A
:104DF80003F00103002B05D1054800F00BF8034B25
:104E080001221A60024B184680BD00BF84080020AA
:104E18005018002080B582B000AF78607B681846D3
:104E28000121044AFEF70CFF7B6818460837BD4687
:104E380080BD00BF0000002080B500AF074B1B6895
:104E480003F00103002B05D1054800F00BF8034BD4
:104E580001221A60024B184680BD00BF8808002056
:104E6800E408002080B58CB00AAF78607B680F4AF0
:104E780000920F4A01920F4A02920F4A03920F4A78
:104E880004920F4A05920F4A06920F4A07920F4A58
:104E980008920122099218460D490E4A0E4BFEF758
:104EA8006DF97B6818460837BD4680BD0C00024086
:104EB8001000024014000240180002401C0002408A
:104EC80020000240240002403038024010380240DE
:104ED80000000240040002400800024080B500AF14
:104EE800074B1B6803F00103002B05D1054800F0B0
:104EF8000BF8034B01221A60024B184680BD00BF15
:104F08008C080020000A002080B58CB00AAF7860B9
:104F18007B680F4A00920F4A01920F4A02920F4A89
:104F280003920F4A04920F4A05920F4A06920F4ABB
:104F380007920F4A08920222099218460D490E4A12
:104F48000E4BFEF71BF97B6818460837BD4680BD37
:104F58000C040240100402401404024018040240E9
:104F68001C0402402004024024040240303802405D
:104F780010380240000402400404024008040240C1
:104F880080B500AF074B1B6803F00103002B05D168
:104F9800054800F00BF8034B01221A60024B184633
:104FA80080BD00BF90080020B40A002080B58CB0F6
:104FB8000AAF78607B680F4A00920F4A01920F4A45
:104FC80002920F4A03920F4A04920F4A05920F4A1F
:104FD80006920F4A07920F4A08920422099218462D
:104FE8000D490E4A0E4BFEF7C9F87B68184608377C
:104FF800BD4680BD0C08024010080240140802405B
:10500800180802401C0802402008024024080240F8
:1050180030380240103802400008024004080240BC
:105028000808024080B500AF074B1B6803F0010376
:10503800002B05D1054800F00BF8034B01221A603C
:10504800024B184680BD00BF940800209C11002028
:1050580080B58CB00AAF78607B680F4A00920F4A1F
:1050680001920F4A02920F4A03920F4A04920F4A82
:1050780005920F4A06920F4A07920F4A0892082291
:10508800099218460D490E4A0E4BFEF777F87B68D1
:1050980018460837BD4680BD0C0C0240100C024073
:1050A800140C0240180C02401C0C0240200C024058
:1050B800240C02403038024010380240000C0240F4
:1050C800040C0240080C024080B500AF074B1B6877
:1050D80003F00103002B05D1054800F00BF8034B42
:1050E80001221A60024B184680BD00BF98080020B4
:1050F8009C1C002080B58CB00AAF78607B680F4A92
:1051080000920F4A01920F4A02920F4A03920F4AE5
:1051180004920F4A05920F4A06920F4A07920F4AC5
:1051280008921022099218460D490E4A0E4BFEF7B6
:1051380025F87B6818460837BD4680BD0C1002402C
:105148001010024014100240181002401C100240B7
:10515800201002402410024030380240103802402B
:1051680000100240041002400810024080B500AF51
:10517800074B1B6803F00103002B05D1054800F01D
:105188000BF8034B01221A60024B184680BD00BF82
:105198009C080020501D002080B58CB00AAF7860B4
:1051A8007B680F4A00920F4A01920F4A02920F4AF7
:1051B80003920F4A04920F4A05920F4A06920F4A29
:1051C80007920F4A08922022099218460D490E4A62
:1051D8000E4BFDF7D3FF7B6818460837BD4680BDE8
:1051E8000C14024010140240141402401814024017
:1051F8001C1402402014024024140240303802409B
:1052080010380240001402400414024008140240FE
:1052180080B500AF074B1B6803F00103002B05D1D5
:10522800054800F00BF8034B01221A60024B1846A0
:1052380080BD00BFA0080020B01B002080B58CB046
:105248000AAF78607B680F4A00920F4A01920F4AB2
:1052580002920F4A03920F4A04920F4A05920F4A8C
:1052680006920F4A07920F4A08924022099218465E
:105278000D490E4A0E4BFDF781FF7B68184608372B
:10528800BD4680BD0C180240101802401418024098
:10529800181802401C180240201802402418024026
:1052A800303802401038024000180240041802400A
:1052B8000818024080B500AF074B1B6803F00103D4
:1052C800002B05D1054800F00BF8034B01221A60AA
:1052D800024B184680BD00BFA4080020041E002011
:1052E80080B58CB00AAF78607B680F4A00920F4A8D
:1052F80001920F4A02920F4A03920F4A04920F4AF0
:1053080005920F4A06920F4A07920F4A0892802286
:10531800099218460D490E4A0E4BFDF72FFF7B6880
:1053280018460837BD4680BD0C1C0240101C0240C0
:10533800141C0240181C02401C1C0240201C024085
:10534800241C02403038024010380240001C024041
:10535800041C0240081C024080B500AF074B1B68C4
:1053680003F00103002B05D1054800F00BF8034BAF
:1053780001221A60024B184680BD00BFA808002011
:105388009809002080B58AB008AF78607B680E4A1B
:1053980000920E4A01920E4A02920E4A039223226A
:1053A80004920D4A05920D4A06924FF480520792D4
:1053B80018460B490B4A0C4BFDF752F87B68184608
:1053C8000837BD4680BD00BF0C3001401030014099
:1053D800143001401830014044380240243802405B
:1053E80000300140043001400830014080B500AF72
:1053F800074B1B6803F00103002B05D1054800F09B
:105408000BF8034B01221A60024B184680BD00BFFF
:10541800AC080020CC09002080B58AB008AF7860BD
:105428007B680E4A00920E4A01920E4A02920E4A78
:105438000392242204920D4A05920D4A06924FF4D3
:105448008042079218460B490B4A0C4BFDF708F8A7
:105458007B6818460837BD4680BD00BF0C38004041
:1054680010380040143800401838004040380240D6
:105478002038024000380040043800400838004016
:1054880080B500AF074B1B6803F00103002B05D163
:10549800054800F00BF8034B01221A60024B18462E
:1054A80080BD00BFB0080020680B002080B58AB01E
:1054B80008AF78607B680E4A00920E4A01920E4A45
:1054C80002920E4A0392332204920D4A05920D4A23
:1054D80006924FF40042079218460B490B4A0C4BB0
:1054E800FCF7BEFF7B6818460837BD4680BD00BF85
:1054F8000C3C0040103C0040143C0040183C00406C
:105508004038024020380240003C0040043C004043
:10551800083C004080B582B000AF78607B68064ADE
:105528001A600023002B02D0786801F02DFF7B68F9
:1055380018460837BD4680BDC897000880B582B0B8
:1055480000AF78607868FFF7E5FF786801F01CFF26
:105558007B6818460837BD4680BD00BF80B582B05D
:1055680000AF78607B68084A1A607B681846FFF7C6
:10557800D1FF0023002B02D0786801F005FF7B687B
:1055880018460837BD4680BDB097000880B582B080
:1055980000AF78607868FFF7E1FF786801F0F4FE03
:1055A8007B6818460837BD4680BD00BF80B582B00D
:1055B80000AF78607B68084A1A607B681846FFF776
:1055C800CDFF0023002B02D0786801F0DDFE7B6858
:1055D80018460837BD4680BD9897000880B582B048
:1055E80000AF78607868FFF7E1FF786801F0CCFEDB
:1055F8007B6818460837BD4680BD00BF80B582B0BD
:1056080000AF78607B68084A1A607B681846FFF725
:10561800CDFF0023002B02D0786801F0B5FE7B682F
:1056280018460837BD4680BDD896000880B582B0B8
:1056380000AF78607868FFF7E1FF786801F0A4FEB2
:105648007B6818460837BD4680BD00BF80B586B068
:1056580004AF78607B680C4A00920C4A01920122E0
:10566800029218460A4919221B23FBF7D1FD7B68D1
:10567800084A1A607B68012283F8AF207B681846C5
:105688000837BD4680BD00BF443802402438024078
:1056980000000140C096000880B500AF0148FEF741
:1056A8005FFE80BD9C0B002080B500AF084B1B68D7
:1056B80003F00103002B08D10648FFF7C7FF044B8E
:1056C80001221A60044801F067FE024B184680BDAB
:1056D800B40800209C0B0020A156000880B586B0B5
:1056E80004AF78607B680C4A00920C4A019202224F
:1056F800029218460A492C222E23FBF789FD7B6863
:10570800084A1A607B68032283F8AF207B68184632
:105718000837BD4680BD00BF4438024024380240E7
:1057280000040140A896000880B500AF0148FEF7C4
:10573800EFFD80BD4816002080B500AF084B1B6800
:1057480003F00103002B08D10648FFF7C7FF044BFD
:1057580001221A60044801F01FFE024B184680BD62
:10576800B8080020481600203157000880B586B0D8
:1057780004AF78607B681D4A00921D4A019201229D
:1057880002920122039218464FF0804104221C2302
:10579800FCF744F97B6803F5F07318464FF0804135
:1057A800FCF70AF97B6803F5F87318464FF0804157
:1057B800FCF7E2F87B6803F5FA7318464FF080416E
:1057C800FCF7EAF87B6803F5FC7318464FF0804154
:1057D800FCF712F97B68074A1A607B68012283F894
:1057E800AF207B6818460837BD4680BD4038024068
:1057F800203802409096000880B500AF0148FEF7B7
:105808005FFD80BDA40D002080B500AF084B1B686C
:1058180003F00103002B08D10648FFF7A7FF044B4C
:1058280001221A60044801F0B7FD024B184680BDFA
:10583800BC080020A40D00200158000880B586B0DF
:1058480004AF78607B681B4A00921B4A01920222CF
:105858000292012203921846184904221D23FCF7DC
:10586800DDF87B6803F5F07318461449FCF7A4F8D3
:105878007B6803F5F87318461049FCF77DF87B68D8
:1058880003F5FA7318460D49FCF786F87B6803F5AB
:10589800FC7318460949FCF7AFF87B68084A1A6098
:1058A8007B68022283F8AF207B6818460837BD461C
:1058B80080BD00BF4038024020380240000400404C
:1058C8007896000880B500AF0148FEF7D1FC80BD8E
:1058D800A00F002080B500AF084B1B6803F0010340
:1058E800002B08D10648FFF7A9FF044B01221A60D4
:1058F800044801F051FD024B184680BDC008002045
:10590800A00F0020CD58000880B586B004AF78609D
:105918007B681B4A00921B4A0192042202920122D0
:1059280003921846184904221E23FCF777F87B686F
:1059380003F5F07318461449FCF73EF87B6803F545
:10594800F87318461049FCF717F87B6803F5FA73E3
:1059580018460D49FCF720F87B6803F5FC731846D8
:105968000949FCF749F87B68084A1A607B680222F3
:1059780083F8AF207B6818460837BD4680BD00BF56
:105988004038024020380240000800406096000875
:1059980080B500AF0148FEF743FC80BD50120020DF
:1059A80080B500AF084B1B6803F00103002B08D13A
:1059B8000648FFF7A9FF044B01221A60044801F0CA
:1059C800EBFC024B184680BDC40800205012002092
:1059D8009959000880B586B004AF78607B681B4A87
:1059E80000921B4A01920822029201220392184651
:1059F800184904223223FCF711F87B6803F5F07389
:105A080018461449FBF7D8FF7B6803F5F873184666
:105A18001049FBF7B1FF7B6803F5FA7318460D4987
:105A2800FBF7BAFF7B6803F5FC7318460949FBF7D7
:105A3800E3FF7B68084A1A607B68022283F8AF207C
:105A48007B6818460837BD4680BD00BF4038024015
:105A580020380240000C00404896000880B500AF8E
:105A68000148FEF7B5FB80BD4C14002080B500AF9F
:105A7800084B1B6803F00103002B08D10648FFF709
:105A8800A9FF044B01221A60044801F085FC024B6F
:105A9800184680BDC80800204C140020655A00082C
:105AA80080B500AF074B1B6803F00103002B05D13D
:105AB800054800F00BF8034B01221A60024B184608
:105AC80080BD00BFCC080020201A002080B58EB011
